{
  "contractName": "Election",
  "abi": [
    {
      "inputs": [],
      "stateMutability": "nonpayable",
      "type": "constructor"
    },
    {
      "anonymous": false,
      "inputs": [
        {
          "indexed": false,
          "internalType": "string",
          "name": "_name",
          "type": "string"
        },
        {
          "indexed": false,
          "internalType": "string",
          "name": "_party",
          "type": "string"
        }
      ],
      "name": "AddedCandidateEvent",
      "type": "event"
    },
    {
      "anonymous": false,
      "inputs": [
        {
          "indexed": false,
          "internalType": "address",
          "name": "_publicKey",
          "type": "address"
        }
      ],
      "name": "AddedVoterEvent",
      "type": "event"
    },
    {
      "anonymous": false,
      "inputs": [
        {
          "indexed": false,
          "internalType": "string",
          "name": "message",
          "type": "string"
        }
      ],
      "name": "ElectionEnd",
      "type": "event"
    },
    {
      "anonymous": false,
      "inputs": [
        {
          "indexed": false,
          "internalType": "string",
          "name": "message",
          "type": "string"
        }
      ],
      "name": "ElectionReady",
      "type": "event"
    },
    {
      "anonymous": false,
      "inputs": [
        {
          "indexed": false,
          "internalType": "uint256",
          "name": "_candidateId",
          "type": "uint256"
        }
      ],
      "name": "VotedEvent",
      "type": "event"
    },
    {
      "inputs": [],
      "name": "candidateCount",
      "outputs": [
        {
          "internalType": "uint256",
          "name": "",
          "type": "uint256"
        }
      ],
      "stateMutability": "view",
      "type": "function",
      "constant": true
    },
    {
      "inputs": [
        {
          "internalType": "uint256",
          "name": "",
          "type": "uint256"
        }
      ],
      "name": "candidates",
      "outputs": [
        {
          "internalType": "uint256",
          "name": "candidateId",
          "type": "uint256"
        },
        {
          "internalType": "string",
          "name": "name",
          "type": "string"
        },
        {
          "internalType": "string",
          "name": "party",
          "type": "string"
        },
        {
          "internalType": "uint256",
          "name": "voteCount",
          "type": "uint256"
        }
      ],
      "stateMutability": "view",
      "type": "function",
      "constant": true
    },
    {
      "inputs": [],
      "name": "castVotesCount",
      "outputs": [
        {
          "internalType": "uint256",
          "name": "",
          "type": "uint256"
        }
      ],
      "stateMutability": "view",
      "type": "function",
      "constant": true
    },
    {
      "inputs": [],
      "name": "end",
      "outputs": [
        {
          "internalType": "bool",
          "name": "",
          "type": "bool"
        }
      ],
      "stateMutability": "view",
      "type": "function",
      "constant": true
    },
    {
      "inputs": [],
      "name": "owner",
      "outputs": [
        {
          "internalType": "address",
          "name": "",
          "type": "address"
        }
      ],
      "stateMutability": "view",
      "type": "function",
      "constant": true
    },
    {
      "inputs": [],
      "name": "start",
      "outputs": [
        {
          "internalType": "bool",
          "name": "",
          "type": "bool"
        }
      ],
      "stateMutability": "view",
      "type": "function",
      "constant": true
    },
    {
      "inputs": [],
      "name": "voterCount",
      "outputs": [
        {
          "internalType": "uint256",
          "name": "",
          "type": "uint256"
        }
      ],
      "stateMutability": "view",
      "type": "function",
      "constant": true
    },
    {
      "inputs": [
        {
          "internalType": "address",
          "name": "",
          "type": "address"
        }
      ],
      "name": "voters",
      "outputs": [
        {
          "internalType": "address",
          "name": "voterAddress",
          "type": "address"
        },
        {
          "internalType": "bool",
          "name": "hasVoted",
          "type": "bool"
        },
        {
          "internalType": "bool",
          "name": "isVerified",
          "type": "bool"
        }
      ],
      "stateMutability": "view",
      "type": "function",
      "constant": true
    },
    {
      "inputs": [
        {
          "internalType": "string",
          "name": "_name",
          "type": "string"
        },
        {
          "internalType": "string",
          "name": "_party",
          "type": "string"
        }
      ],
      "name": "addCandidate",
      "outputs": [],
      "stateMutability": "nonpayable",
      "type": "function"
    },
    {
      "inputs": [
        {
          "internalType": "address",
          "name": "_publicKey",
          "type": "address"
        }
      ],
      "name": "addVoter",
      "outputs": [],
      "stateMutability": "nonpayable",
      "type": "function"
    },
    {
      "inputs": [],
      "name": "startElection",
      "outputs": [],
      "stateMutability": "nonpayable",
      "type": "function"
    },
    {
      "inputs": [],
      "name": "endElection",
      "outputs": [],
      "stateMutability": "nonpayable",
      "type": "function"
    },
    {
      "inputs": [],
      "name": "resetElection",
      "outputs": [],
      "stateMutability": "nonpayable",
      "type": "function"
    },
    {
      "inputs": [
        {
          "internalType": "uint256",
          "name": "_candidateId",
          "type": "uint256"
        }
      ],
      "name": "vote",
      "outputs": [],
      "stateMutability": "nonpayable",
      "type": "function"
    },
    {
      "inputs": [],
      "name": "winnerIndex",
      "outputs": [
        {
          "internalType": "uint256",
          "name": "winnerIndex_",
          "type": "uint256"
        }
      ],
      "stateMutability": "view",
      "type": "function",
      "constant": true
    },
    {
      "inputs": [
        {
          "internalType": "uint256",
          "name": "_candidateId",
          "type": "uint256"
        }
      ],
      "name": "getCandidateVoteCount",
      "outputs": [
        {
          "internalType": "uint256",
          "name": "",
          "type": "uint256"
        }
      ],
      "stateMutability": "view",
      "type": "function",
      "constant": true
    },
    {
      "inputs": [],
      "name": "winnerDetails",
      "outputs": [
        {
          "internalType": "string",
          "name": "name",
          "type": "string"
        },
        {
          "internalType": "string",
          "name": "party",
          "type": "string"
        },
        {
          "internalType": "uint256",
          "name": "voteCount",
          "type": "uint256"
        }
      ],
      "stateMutability": "view",
      "type": "function",
      "constant": true
    }
  ],
  "bytecode": "0x608060405234801561001057600080fd5b50336000806101000a81548173ffffffffffffffffffffffffffffffffffffffff021916908373ffffffffffffffffffffffffffffffffffffffff1602179055506000600181905550600060028190555060006003819055506000600460006101000a81548160ff0219169083151502179055506000600460016101000a81548160ff021916908315150217905550611dbf806100ae6000396000f3fe608060405234801561001057600080fd5b506004361061010b5760003560e01c80638f00cbfa116100a2578063be9a655511610071578063be9a655514610287578063e8f30523146102a5578063ed8bddeb146102af578063efbe1c1c146102cf578063f4ab9adf146102ed5761010b565b80638f00cbfa146101e9578063a3ec138d14610207578063a9a981a314610239578063b315c597146102575761010b565b80634977f7de116100de5780634977f7de1461019957806359f78468146101b757806362d73eb8146101c15780638da5cb5b146101cb5761010b565b80630121b93f1461011057806326541b561461012c5780633477ee2e1461014857806342169e481461017b575b600080fd5b61012a6004803603810190610125919061149d565b610309565b005b61014660048036038101906101419190611431565b6105ba565b005b610162600480360381019061015d919061149d565b610790565b6040516101729493929190611ae8565b60405180910390f35b6101836108d0565b6040516101909190611acd565b60405180910390f35b6101a16108d6565b6040516101ae9190611acd565b60405180910390f35b6101bf6108dc565b005b6101c9610a3f565b005b6101d3610ba3565b6040516101e09190611884565b60405180910390f35b6101f1610bc7565b6040516101fe9190611acd565b60405180910390f35b610221600480360381019061021c9190611408565b610c7c565b6040516102309392919061189f565b60405180910390f35b610241610ce0565b60405161024e9190611acd565b60405180910390f35b610271600480360381019061026c919061149d565b610ce6565b60405161027e9190611acd565b60405180910390f35b61028f610d06565b60405161029c91906118d6565b60405180910390f35b6102ad610d19565b005b6102b7610e61565b6040516102c693929190611928565b60405180910390f35b6102d7611037565b6040516102e491906118d6565b60405180910390f35b61030760048036038101906103029190611408565b61104a565b005b600460009054906101000a900460ff1680156103325750600460019054906101000a900460ff16155b610371576040517f08c379a000000000000000000000000000000000000000000000000000000000815260040161036890611a6d565b60405180910390fd5b600660003373ffffffffffffffffffffffffffffffffffffffff1673ffffffffffffffffffffffffffffffffffffffff16815260200190815260200160002060000160149054906101000a900460ff1615610401576040517f08c379a00000000000000000000000000000000000000000000000000000000081526004016103f89061196d565b60405180910390fd5b600660003373ffffffffffffffffffffffffffffffffffffffff1673ffffffffffffffffffffffffffffffffffffffff16815260200190815260200160002060000160159054906101000a900460ff16610490576040517f08c379a0000000000000000000000000000000000000000000000000000000008152600401610487906119cd565b60405180910390fd5b6000811180156104a257506001548111155b6104e1576040517f08c379a00000000000000000000000000000000000000000000000000000000081526004016104d890611aad565b60405180910390fd5b60056000828152602001908152602001600020600301600081548092919061050890611c74565b91905055506001600660003373ffffffffffffffffffffffffffffffffffffffff1673ffffffffffffffffffffffffffffffffffffffff16815260200190815260200160002060000160146101000a81548160ff0219169083151502179055506003600081548092919061057b90611c74565b91905055507fe447c5464cb203c1da94b4db8588d3cbf313ce4a489122f6b88e87f465b2810e816040516105af9190611acd565b60405180910390a150565b60008054906101000a900473ffffffffffffffffffffffffffffffffffffffff1673ffffffffffffffffffffffffffffffffffffffff163373ffffffffffffffffffffffffffffffffffffffff1614610648576040517f08c379a000000000000000000000000000000000000000000000000000000000815260040161063f90611a0d565b60405180910390fd5b600460009054906101000a900460ff161580156106725750600460019054906101000a900460ff16155b6106b1576040517f08c379a00000000000000000000000000000000000000000000000000000000081526004016106a890611a8d565b60405180910390fd5b600160008154809291906106c490611c74565b9190505550604051806080016040528060015481526020018381526020018281526020016000815250600560006001548152602001908152602001600020600082015181600001556020820151816001019080519060200190610728929190611293565b506040820151816002019080519060200190610745929190611293565b50606082015181600301559050507fc816165c75f22d973db0134558c454ec577ffaa1eac683deb54c56328c9a88e882826040516107849291906118f1565b60405180910390a15050565b60056020528060005260406000206000915090508060000154908060010180546107b990611c42565b80601f01602080910402602001604051908101604052809291908181526020018280546107e590611c42565b80156108325780601f1061080757610100808354040283529160200191610832565b820191906000526020600020905b81548152906001019060200180831161081557829003601f168201915b50505050509080600201805461084790611c42565b80601f016020809104026020016040519081016040528092919081815260200182805461087390611c42565b80156108c05780601f10610895576101008083540402835291602001916108c0565b820191906000526020600020905b8154815290600101906020018083116108a357829003601f168201915b5050505050908060030154905084565b60025481565b60035481565b60008054906101000a900473ffffffffffffffffffffffffffffffffffffffff1673ffffffffffffffffffffffffffffffffffffffff163373ffffffffffffffffffffffffffffffffffffffff161461096a576040517f08c379a000000000000000000000000000000000000000000000000000000000815260040161096190611a0d565b60405180910390fd5b600460009054906101000a900460ff1680156109935750600460019054906101000a900460ff16155b6109d2576040517f08c379a00000000000000000000000000000000000000000000000000000000081526004016109c9906119ed565b60405180910390fd5b6001600460016101000a81548160ff0219169083151502179055506000600460006101000a81548160ff0219169083151502179055507f5e08f51de29577ed20aa1bf76271ef1d85099ada958f30b3814c85e4554435e7604051610a35906119ad565b60405180910390a1565b60008054906101000a900473ffffffffffffffffffffffffffffffffffffffff1673ffffffffffffffffffffffffffffffffffffffff163373ffffffffffffffffffffffffffffffffffffffff1614610acd576040517f08c379a0000000000000000000000000000000000000000000000000000000008152600401610ac490611a0d565b60405180910390fd5b600460009054906101000a900460ff16158015610af75750600460019054906101000a900460ff16155b610b36576040517f08c379a0000000000000000000000000000000000000000000000000000000008152600401610b2d90611a4d565b60405180910390fd5b6001600460006101000a81548160ff0219169083151502179055506000600460016101000a81548160ff0219169083151502179055507f35e1d077446610ba71ee3cd71c862a49884fa7f5a81ef4047983bd8cfbf982bf604051610b9990611a2d565b60405180910390a1565b60008054906101000a900473ffffffffffffffffffffffffffffffffffffffff1681565b6000600460019054906101000a900460ff16610c18576040517f08c379a0000000000000000000000000000000000000000000000000000000008152600401610c0f9061198d565b60405180910390fd5b600080600190505b6001548111610c77578160056000838152602001908152602001600020600301541115610c6457600560008281526020019081526020016000206003015491508092505b8080610c6f90611c74565b915050610c20565b505090565b60066020528060005260406000206000915090508060000160009054906101000a900473ffffffffffffffffffffffffffffffffffffffff16908060000160149054906101000a900460ff16908060000160159054906101000a900460ff16905083565b60015481565b600060056000838152602001908152602001600020600301549050919050565b600460009054906101000a900460ff1681565b60008054906101000a900473ffffffffffffffffffffffffffffffffffffffff1673ffffffffffffffffffffffffffffffffffffffff163373ffffffffffffffffffffffffffffffffffffffff1614610da7576040517f08c379a0000000000000000000000000000000000000000000000000000000008152600401610d9e90611a0d565b60405180910390fd5b6000600190505b6001548111610e105760056000828152602001908152602001600020600080820160009055600182016000610de39190611319565b600282016000610df39190611319565b600382016000905550508080610e0890611c74565b915050610dae565b506000600460006101000a81548160ff0219169083151502179055506000600460016101000a81548160ff021916908315150217905550600060018190555060006002819055506000600381905550565b6060806000600460019054906101000a900460ff16610eb5576040517f08c379a0000000000000000000000000000000000000000000000000000000008152600401610eac9061198d565b60405180910390fd5b6000610ebf610bc7565b905060006005600083815260200190815260200160002060405180608001604052908160008201548152602001600182018054610efb90611c42565b80601f0160208091040260200160405190810160405280929190818152602001828054610f2790611c42565b8015610f745780601f10610f4957610100808354040283529160200191610f74565b820191906000526020600020905b815481529060010190602001808311610f5757829003601f168201915b50505050508152602001600282018054610f8d90611c42565b80601f0160208091040260200160405190810160405280929190818152602001828054610fb990611c42565b80156110065780601f10610fdb57610100808354040283529160200191611006565b820191906000526020600020905b815481529060010190602001808311610fe957829003601f168201915b5050505050815260200160038201548152505090508060200151816040015182606001519450945094505050909192565b600460019054906101000a900460ff1681565b60008054906101000a900473ffffffffffffffffffffffffffffffffffffffff1673ffffffffffffffffffffffffffffffffffffffff163373ffffffffffffffffffffffffffffffffffffffff16146110d8576040517f08c379a00000000000000000000000000000000000000000000000000000000081526004016110cf90611a0d565b60405180910390fd5b600460009054906101000a900460ff161580156111025750600460019054906101000a900460ff16155b611141576040517f08c379a000000000000000000000000000000000000000000000000000000000815260040161113890611a8d565b60405180910390fd5b6002600081548092919061115490611c74565b919050555060405180606001604052808273ffffffffffffffffffffffffffffffffffffffff16815260200160001515815260200160011515815250600660008373ffffffffffffffffffffffffffffffffffffffff1673ffffffffffffffffffffffffffffffffffffffff16815260200190815260200160002060008201518160000160006101000a81548173ffffffffffffffffffffffffffffffffffffffff021916908373ffffffffffffffffffffffffffffffffffffffff16021790555060208201518160000160146101000a81548160ff02191690831515021790555060408201518160000160156101000a81548160ff0219169083151502179055509050507fd461eb4527d2ff75d26b5cac0bf54ef2ecbcf38f634fadd0c21fd724a685f5ef816040516112889190611884565b60405180910390a150565b82805461129f90611c42565b90600052602060002090601f0160209004810192826112c15760008555611308565b82601f106112da57805160ff1916838001178555611308565b82800160010185558215611308579182015b828111156113075782518255916020019190600101906112ec565b5b5090506113159190611359565b5090565b50805461132590611c42565b6000825580601f106113375750611356565b601f0160209004906000526020600020908101906113559190611359565b5b50565b5b8082111561137257600081600090555060010161135a565b5090565b600061138961138484611b6c565b611b3b565b9050828152602081018484840111156113a157600080fd5b6113ac848285611c00565b509392505050565b6000813590506113c381611d5b565b92915050565b600082601f8301126113da57600080fd5b81356113ea848260208601611376565b91505092915050565b60008135905061140281611d72565b92915050565b60006020828403121561141a57600080fd5b6000611428848285016113b4565b91505092915050565b6000806040838503121561144457600080fd5b600083013567ffffffffffffffff81111561145e57600080fd5b61146a858286016113c9565b925050602083013567ffffffffffffffff81111561148757600080fd5b611493858286016113c9565b9150509250929050565b6000602082840312156114af57600080fd5b60006114bd848285016113f3565b91505092915050565b6114cf81611bb8565b82525050565b6114de81611bca565b82525050565b60006114ef82611b9c565b6114f98185611ba7565b9350611509818560208601611c0f565b61151281611d4a565b840191505092915050565b600061152a601783611ba7565b91507f596f75206861766520616c726561647920766f7465642e0000000000000000006000830152602082019050919050565b600061156a601983611ba7565b91507f456c656374696f6e206d757374206861766520656e6465642e000000000000006000830152602082019050919050565b60006115aa602283611ba7565b91507f54686520656c656374696f6e20686173206f6666696369616c6c7920656e646560008301527f642e0000000000000000000000000000000000000000000000000000000000006020830152604082019050919050565b6000611610601d83611ba7565b91507f596f7520617265206e6f7420766572696669656420746f20766f74652e0000006000830152602082019050919050565b6000611650601c83611ba7565b91507f456c656374696f6e206861736e27742073746172746564207965742e000000006000830152602082019050919050565b6000611690602783611ba7565b91507f4f6e6c79207468652061646d696e2063616e20706572666f726d20746869732060008301527f616374696f6e2e000000000000000000000000000000000000000000000000006020830152604082019050919050565b60006116f6602483611ba7565b91507f54686520656c656374696f6e20686173206f6666696369616c6c79207374617260008301527f7465642e000000000000000000000000000000000000000000000000000000006020830152604082019050919050565b600061175c601983611ba7565b91507f456c656374696f6e20616c726561647920737461727465642e000000000000006000830152602082019050919050565b600061179c601783611ba7565b91507f456c656374696f6e206973206e6f74206163746976652e0000000000000000006000830152602082019050919050565b60006117dc602183611ba7565b91507f456c656374696f6e206973206f6e676f696e67206f722068617320656e64656460008301527f2e000000000000000000000000000000000000000000000000000000000000006020830152604082019050919050565b6000611842601583611ba7565b91507f496e76616c69642063616e6469646174652049442e00000000000000000000006000830152602082019050919050565b61187e81611bf6565b82525050565b600060208201905061189960008301846114c6565b92915050565b60006060820190506118b460008301866114c6565b6118c160208301856114d5565b6118ce60408301846114d5565b949350505050565b60006020820190506118eb60008301846114d5565b92915050565b6000604082019050818103600083015261190b81856114e4565b9050818103602083015261191f81846114e4565b90509392505050565b6000606082019050818103600083015261194281866114e4565b9050818103602083015261195681856114e4565b90506119656040830184611875565b949350505050565b600060208201905081810360008301526119868161151d565b9050919050565b600060208201905081810360008301526119a68161155d565b9050919050565b600060208201905081810360008301526119c68161159d565b9050919050565b600060208201905081810360008301526119e681611603565b9050919050565b60006020820190508181036000830152611a0681611643565b9050919050565b60006020820190508181036000830152611a2681611683565b9050919050565b60006020820190508181036000830152611a46816116e9565b9050919050565b60006020820190508181036000830152611a668161174f565b9050919050565b60006020820190508181036000830152611a868161178f565b9050919050565b60006020820190508181036000830152611aa6816117cf565b9050919050565b60006020820190508181036000830152611ac681611835565b9050919050565b6000602082019050611ae26000830184611875565b92915050565b6000608082019050611afd6000830187611875565b8181036020830152611b0f81866114e4565b90508181036040830152611b2381856114e4565b9050611b326060830184611875565b95945050505050565b6000604051905081810181811067ffffffffffffffff82111715611b6257611b61611d1b565b5b8060405250919050565b600067ffffffffffffffff821115611b8757611b86611d1b565b5b601f19601f8301169050602081019050919050565b600081519050919050565b600082825260208201905092915050565b6000611bc382611bd6565b9050919050565b60008115159050919050565b600073ffffffffffffffffffffffffffffffffffffffff82169050919050565b6000819050919050565b82818337600083830152505050565b60005b83811015611c2d578082015181840152602081019050611c12565b83811115611c3c576000848401525b50505050565b60006002820490506001821680611c5a57607f821691505b60208210811415611c6e57611c6d611cec565b5b50919050565b6000611c7f82611bf6565b91507fffffffffffffffffffffffffffffffffffffffffffffffffffffffffffffffff821415611cb257611cb1611cbd565b5b600182019050919050565b7f4e487b7100000000000000000000000000000000000000000000000000000000600052601160045260246000fd5b7f4e487b7100000000000000000000000000000000000000000000000000000000600052602260045260246000fd5b7f4e487b7100000000000000000000000000000000000000000000000000000000600052604160045260246000fd5b6000601f19601f8301169050919050565b611d6481611bb8565b8114611d6f57600080fd5b50565b611d7b81611bf6565b8114611d8657600080fd5b5056fea2646970667358221220f9d0df5e2ef833d2f9f32650822a7ee166ed12c710cfc69da4e90fde06c2023764736f6c63430008000033",
  "immutableReferences": {},
  "source": "// SPDX-License-Identifier: MIT\r\npragma solidity ^0.8.0;\r\n\r\ncontract Election {\r\n    address public owner;\r\n    uint public candidateCount;\r\n    uint public voterCount;\r\n    uint public castVotesCount;\r\n    bool public start;\r\n    bool public end;\r\n\r\n    constructor() {\r\n        owner = msg.sender;\r\n        candidateCount = 0;\r\n        voterCount = 0;\r\n        castVotesCount = 0;\r\n        start = false;\r\n        end = false;\r\n    }\r\n\r\n    modifier onlyAdmin() {\r\n        require(msg.sender == owner, \"Only the admin can perform this action.\");\r\n        _;\r\n    }\r\n\r\n    event AddedCandidateEvent(string _name, string _party);\r\n    event AddedVoterEvent(address _publicKey);\r\n    event ElectionReady(string message);\r\n    event ElectionEnd(string message);\r\n    event VotedEvent(uint _candidateId);\r\n\r\n    struct Candidate {\r\n        uint candidateId;\r\n        string name;\r\n        string party;\r\n        uint voteCount;\r\n    }\r\n\r\n    struct Voter {\r\n        address voterAddress;\r\n        bool hasVoted;\r\n        bool isVerified;\r\n    }\r\n\r\n    mapping(uint => Candidate) public candidates;\r\n    mapping(address => Voter) public voters;\r\n\r\n    function addCandidate(string memory _name, string memory _party) public onlyAdmin {\r\n        require(!start && !end, \"Election is ongoing or has ended.\");\r\n        candidateCount++;\r\n        candidates[candidateCount] = Candidate(candidateCount, _name, _party, 0);\r\n        emit AddedCandidateEvent(_name, _party);\r\n    }\r\n\r\n    function addVoter(address _publicKey) public onlyAdmin {\r\n        require(!start && !end, \"Election is ongoing or has ended.\");\r\n        voterCount++;\r\n        voters[_publicKey] = Voter(_publicKey, false, true);\r\n        emit AddedVoterEvent(_publicKey);\r\n    }\r\n\r\n    function startElection() public onlyAdmin {\r\n        require(!start && !end, \"Election already started.\");\r\n        start = true;\r\n        end = false;\r\n        emit ElectionReady(\"The election has officially started.\");\r\n    }\r\n\r\n    function endElection() public onlyAdmin {\r\n        require(start && !end, \"Election hasn't started yet.\");\r\n        end = true;\r\n        start = false;\r\n        emit ElectionEnd(\"The election has officially ended.\");\r\n    }\r\n\r\n    function resetElection() public onlyAdmin {\r\n        for (uint i = 1; i <= candidateCount; i++) {\r\n            delete candidates[i];\r\n        }\r\n        \r\n        start = false;\r\n        end = false;\r\n        candidateCount = 0;\r\n        voterCount = 0;\r\n        castVotesCount = 0;\r\n    }\r\n\r\n    function vote(uint _candidateId) public {\r\n        require(start && !end, \"Election is not active.\");\r\n        require(!voters[msg.sender].hasVoted, \"You have already voted.\");\r\n        require(voters[msg.sender].isVerified, \"You are not verified to vote.\");\r\n        require(_candidateId > 0 && _candidateId <= candidateCount, \"Invalid candidate ID.\");\r\n\r\n        candidates[_candidateId].voteCount++;\r\n        voters[msg.sender].hasVoted = true;\r\n        castVotesCount++;\r\n        emit VotedEvent(_candidateId);\r\n    }\r\n\r\n    function winnerIndex() public view returns (uint winnerIndex_) {\r\n        require(end, \"Election must have ended.\");\r\n        uint winningVoteCount = 0;\r\n        for (uint i = 1; i <= candidateCount; i++) {\r\n            if (candidates[i].voteCount > winningVoteCount) {\r\n                winningVoteCount = candidates[i].voteCount;\r\n                winnerIndex_ = i;\r\n            }\r\n        }\r\n    }\r\n\r\n    function getCandidateVoteCount(uint _candidateId) public view returns (uint){\r\n        return candidates[_candidateId].voteCount;\r\n    }\r\n\r\n    function winnerDetails() public view returns (string memory name, string memory party, uint voteCount) {\r\n        require(end, \"Election must have ended.\");\r\n        uint winnerId = winnerIndex();\r\n        Candidate memory winner = candidates[winnerId];\r\n        return (winner.name, winner.party, winner.voteCount);\r\n    }\r\n}\r\n",
  "sourcePath": "E:\\Masters\\blockchain-voting\\contracts\\voting.sol",
  "compiler": {
    "name": "solc",
    "version": "0.8.0+commit.c7dfd78e.Emscripten.clang"
  },
  "schemaVersion": "3.4.16",
  "updatedAt": "2025-02-15T18:25:33.710Z",
  "networkType": "ethereum",
  "devdoc": {
    "kind": "dev",
    "methods": {},
    "version": 1
  },
  "userdoc": {
    "kind": "user",
    "methods": {},
    "version": 1
  }
}